{
  "_format": "hh3-artifact-1",
  "contractName": "Muro",
  "sourceName": "contracts/muro.sol",
  "abi": [
    {
      "inputs": [
        {
          "internalType": "uint256",
          "name": "",
          "type": "uint256"
        }
      ],
      "name": "listaDeMensajes",
      "outputs": [
        {
          "internalType": "address",
          "name": "autor",
          "type": "address"
        },
        {
          "internalType": "string",
          "name": "texto",
          "type": "string"
        },
        {
          "internalType": "uint256",
          "name": "fecha",
          "type": "uint256"
        }
      ],
      "stateMutability": "view",
      "type": "function"
    },
    {
      "inputs": [],
      "name": "obtenerTodos",
      "outputs": [
        {
          "components": [
            {
              "internalType": "address",
              "name": "autor",
              "type": "address"
            },
            {
              "internalType": "string",
              "name": "texto",
              "type": "string"
            },
            {
              "internalType": "uint256",
              "name": "fecha",
              "type": "uint256"
            }
          ],
          "internalType": "struct Muro.Mensaje[]",
          "name": "",
          "type": "tuple[]"
        }
      ],
      "stateMutability": "view",
      "type": "function"
    },
    {
      "inputs": [
        {
          "internalType": "string",
          "name": "_texto",
          "type": "string"
        }
      ],
      "name": "publicarMensaje",
      "outputs": [],
      "stateMutability": "nonpayable",
      "type": "function"
    }
  ],
  "bytecode": "0x6080604052348015600e575f5ffd5b50610afe8061001c5f395ff3fe608060405234801561000f575f5ffd5b506004361061003f575f3560e01c8063230131941461004357806331457b27146100755780635bf0ce5b14610093575b5f5ffd5b61005d600480360381019061005891906103d6565b6100af565b60405161006c939291906104bf565b60405180910390f35b61007d610188565b60405161008a9190610669565b60405180910390f35b6100ad60048036038101906100a891906107b5565b6102d1565b005b5f81815481106100bd575f80fd5b905f5260205f2090600302015f91509050805f015f9054906101000a900473ffffffffffffffffffffffffffffffffffffffff169080600101805461010190610829565b80601f016020809104026020016040519081016040528092919081815260200182805461012d90610829565b80156101785780601f1061014f57610100808354040283529160200191610178565b820191905f5260205f20905b81548152906001019060200180831161015b57829003601f168201915b5050505050908060020154905083565b60605f805480602002602001604051908101604052809291908181526020015f905b828210156102c8578382905f5260205f2090600302016040518060600160405290815f82015f9054906101000a900473ffffffffffffffffffffffffffffffffffffffff1673ffffffffffffffffffffffffffffffffffffffff1673ffffffffffffffffffffffffffffffffffffffff16815260200160018201805461022f90610829565b80601f016020809104026020016040519081016040528092919081815260200182805461025b90610829565b80156102a65780601f1061027d576101008083540402835291602001916102a6565b820191905f5260205f20905b81548152906001019060200180831161028957829003601f168201915b50505050508152602001600282015481525050815260200190600101906101aa565b50505050905090565b5f60405180606001604052803373ffffffffffffffffffffffffffffffffffffffff16815260200183815260200142815250908060018154018082558091505060019003905f5260205f2090600302015f909190919091505f820151815f015f6101000a81548173ffffffffffffffffffffffffffffffffffffffff021916908373ffffffffffffffffffffffffffffffffffffffff160217905550602082015181600101908161038291906109f9565b5060408201518160020155505050565b5f604051905090565b5f5ffd5b5f5ffd5b5f819050919050565b6103b5816103a3565b81146103bf575f5ffd5b50565b5f813590506103d0816103ac565b92915050565b5f602082840312156103eb576103ea61039b565b5b5f6103f8848285016103c2565b91505092915050565b5f73ffffffffffffffffffffffffffffffffffffffff82169050919050565b5f61042a82610401565b9050919050565b61043a81610420565b82525050565b5f81519050919050565b5f82825260208201905092915050565b8281835e5f83830152505050565b5f601f19601f8301169050919050565b5f61048282610440565b61048c818561044a565b935061049c81856020860161045a565b6104a581610468565b840191505092915050565b6104b9816103a3565b82525050565b5f6060820190506104d25f830186610431565b81810360208301526104e48185610478565b90506104f360408301846104b0565b949350505050565b5f81519050919050565b5f82825260208201905092915050565b5f819050602082019050919050565b61052d81610420565b82525050565b5f82825260208201905092915050565b5f61054d82610440565b6105578185610533565b935061056781856020860161045a565b61057081610468565b840191505092915050565b610584816103a3565b82525050565b5f606083015f83015161059f5f860182610524565b50602083015184820360208601526105b78282610543565b91505060408301516105cc604086018261057b565b508091505092915050565b5f6105e2838361058a565b905092915050565b5f602082019050919050565b5f610600826104fb565b61060a8185610505565b93508360208202850161061c85610515565b805f5b85811015610657578484038952815161063885826105d7565b9450610643836105ea565b925060208a0199505060018101905061061f565b50829750879550505050505092915050565b5f6020820190508181035f83015261068181846105f6565b905092915050565b5f5ffd5b5f5ffd5b7f4e487b71000000000000000000000000000000000000000000000000000000005f52604160045260245ffd5b6106c782610468565b810181811067ffffffffffffffff821117156106e6576106e5610691565b5b80604052505050565b5f6106f8610392565b905061070482826106be565b919050565b5f67ffffffffffffffff82111561072357610722610691565b5b61072c82610468565b9050602081019050919050565b828183375f83830152505050565b5f61075961075484610709565b6106ef565b9050828152602081018484840111156107755761077461068d565b5b610780848285610739565b509392505050565b5f82601f83011261079c5761079b610689565b5b81356107ac848260208601610747565b91505092915050565b5f602082840312156107ca576107c961039b565b5b5f82013567ffffffffffffffff8111156107e7576107e661039f565b5b6107f384828501610788565b91505092915050565b7f4e487b71000000000000000000000000000000000000000000000000000000005f52602260045260245ffd5b5f600282049050600182168061084057607f821691505b602082108103610853576108526107fc565b5b50919050565b5f819050815f5260205f209050919050565b5f6020601f8301049050919050565b5f82821b905092915050565b5f600883026108b57fffffffffffffffffffffffffffffffffffffffffffffffffffffffffffffffff8261087a565b6108bf868361087a565b95508019841693508086168417925050509392505050565b5f819050919050565b5f6108fa6108f56108f0846103a3565b6108d7565b6103a3565b9050919050565b5f819050919050565b610913836108e0565b61092761091f82610901565b848454610886565b825550505050565b5f5f905090565b61093e61092f565b61094981848461090a565b505050565b5b8181101561096c576109615f82610936565b60018101905061094f565b5050565b601f8211156109b15761098281610859565b61098b8461086b565b8101602085101561099a578190505b6109ae6109a68561086b565b83018261094e565b50505b505050565b5f82821c905092915050565b5f6109d15f19846008026109b6565b1980831691505092915050565b5f6109e983836109c2565b9150826002028217905092915050565b610a0282610440565b67ffffffffffffffff811115610a1b57610a1a610691565b5b610a258254610829565b610a30828285610970565b5f60209050601f831160018114610a61575f8415610a4f578287015190505b610a5985826109de565b865550610ac0565b601f198416610a6f86610859565b5f5b82811015610a9657848901518255600182019150602085019450602081019050610a71565b86831015610ab35784890151610aaf601f8916826109c2565b8355505b6001600288020188555050505b50505050505056fea2646970667358221220b9bed419ee7a64d04bcfc0c61f85072cb6bd3b9ace2efb0a86304977cc82447564736f6c634300081c0033",
  "linkReferences": {},
  "deployedLinkReferences": {},
  "immutableReferences": {},
  "inputSourceName": "project/contracts/muro.sol",
  "buildInfoId": "solc-0_8_28-5a588840cb555f494546239d1fdd4524c65ae1bf"
}